{
  "address": "0x587DDA3aba3e16886b029E70EC9572f0D4f422Bc",
  "abi": [
    {
      "anonymous": false,
      "inputs": [
        {
          "indexed": false,
          "internalType": "address",
          "name": "_claimant",
          "type": "address"
        },
        {
          "indexed": false,
          "internalType": "uint256",
          "name": "_balance",
          "type": "uint256"
        }
      ],
      "name": "Claimed",
      "type": "event"
    },
    {
      "anonymous": false,
      "inputs": [
        {
          "indexed": true,
          "internalType": "address",
          "name": "previousOwner",
          "type": "address"
        },
        {
          "indexed": true,
          "internalType": "address",
          "name": "newOwner",
          "type": "address"
        }
      ],
      "name": "OwnershipTransferred",
      "type": "event"
    },
    {
      "inputs": [],
      "name": "candidate",
      "outputs": [
        {
          "internalType": "address",
          "name": "",
          "type": "address"
        }
      ],
      "stateMutability": "view",
      "type": "function"
    },
    {
      "inputs": [
        {
          "internalType": "address",
          "name": "_liquidityProvider",
          "type": "address"
        },
        {
          "internalType": "uint256",
          "name": "_begin",
          "type": "uint256"
        },
        {
          "internalType": "uint256",
          "name": "_end",
          "type": "uint256"
        }
      ],
      "name": "claimStatus",
      "outputs": [
        {
          "internalType": "bool[]",
          "name": "",
          "type": "bool[]"
        }
      ],
      "stateMutability": "view",
      "type": "function"
    },
    {
      "inputs": [
        {
          "internalType": "address",
          "name": "_account",
          "type": "address"
        },
        {
          "internalType": "uint256",
          "name": "_week",
          "type": "uint256"
        },
        {
          "internalType": "uint256",
          "name": "_claimedBalance",
          "type": "uint256"
        },
        {
          "internalType": "bytes32[]",
          "name": "_merkleProof",
          "type": "bytes32[]"
        }
      ],
      "name": "claimWeek",
      "outputs": [],
      "stateMutability": "nonpayable",
      "type": "function"
    },
    {
      "inputs": [
        {
          "internalType": "address",
          "name": "_account",
          "type": "address"
        },
        {
          "components": [
            {
              "internalType": "uint256",
              "name": "week",
              "type": "uint256"
            },
            {
              "internalType": "uint256",
              "name": "balance",
              "type": "uint256"
            },
            {
              "internalType": "bytes32[]",
              "name": "merkleProof",
              "type": "bytes32[]"
            }
          ],
          "internalType": "struct MerkleRedeemUpgradeSafe.Claim[]",
          "name": "_claims",
          "type": "tuple[]"
        }
      ],
      "name": "claimWeeks",
      "outputs": [],
      "stateMutability": "nonpayable",
      "type": "function"
    },
    {
      "inputs": [
        {
          "internalType": "uint256",
          "name": "",
          "type": "uint256"
        },
        {
          "internalType": "address",
          "name": "",
          "type": "address"
        }
      ],
      "name": "claimed",
      "outputs": [
        {
          "internalType": "bool",
          "name": "",
          "type": "bool"
        }
      ],
      "stateMutability": "view",
      "type": "function"
    },
    {
      "inputs": [],
      "name": "getLengthOfMerkleRoots",
      "outputs": [
        {
          "internalType": "uint256",
          "name": "",
          "type": "uint256"
        }
      ],
      "stateMutability": "view",
      "type": "function"
    },
    {
      "inputs": [
        {
          "internalType": "address",
          "name": "_token",
          "type": "address"
        }
      ],
      "name": "initialize",
      "outputs": [],
      "stateMutability": "nonpayable",
      "type": "function"
    },
    {
      "inputs": [
        {
          "internalType": "uint256",
          "name": "",
          "type": "uint256"
        }
      ],
      "name": "merkleRootIndexes",
      "outputs": [
        {
          "internalType": "uint256",
          "name": "",
          "type": "uint256"
        }
      ],
      "stateMutability": "view",
      "type": "function"
    },
    {
      "inputs": [
        {
          "internalType": "uint256",
          "name": "_begin",
          "type": "uint256"
        },
        {
          "internalType": "uint256",
          "name": "_end",
          "type": "uint256"
        }
      ],
      "name": "merkleRoots",
      "outputs": [
        {
          "internalType": "bytes32[]",
          "name": "",
          "type": "bytes32[]"
        }
      ],
      "stateMutability": "view",
      "type": "function"
    },
    {
      "inputs": [],
      "name": "owner",
      "outputs": [
        {
          "internalType": "address",
          "name": "",
          "type": "address"
        }
      ],
      "stateMutability": "view",
      "type": "function"
    },
    {
      "inputs": [],
      "name": "renounceOwnership",
      "outputs": [],
      "stateMutability": "nonpayable",
      "type": "function"
    },
    {
      "inputs": [
        {
          "internalType": "uint256",
          "name": "_week",
          "type": "uint256"
        },
        {
          "internalType": "bytes32",
          "name": "_merkleRoot",
          "type": "bytes32"
        },
        {
          "internalType": "uint256",
          "name": "_totalAllocation",
          "type": "uint256"
        }
      ],
      "name": "seedAllocations",
      "outputs": [],
      "stateMutability": "nonpayable",
      "type": "function"
    },
    {
      "inputs": [
        {
          "internalType": "address",
          "name": "newOwner",
          "type": "address"
        }
      ],
      "name": "setOwner",
      "outputs": [],
      "stateMutability": "nonpayable",
      "type": "function"
    },
    {
      "inputs": [],
      "name": "token",
      "outputs": [
        {
          "internalType": "contract IERC20",
          "name": "",
          "type": "address"
        }
      ],
      "stateMutability": "view",
      "type": "function"
    },
    {
      "inputs": [],
      "name": "updateOwner",
      "outputs": [],
      "stateMutability": "nonpayable",
      "type": "function"
    },
    {
      "inputs": [
        {
          "internalType": "address",
          "name": "_liquidityProvider",
          "type": "address"
        },
        {
          "internalType": "uint256",
          "name": "_week",
          "type": "uint256"
        },
        {
          "internalType": "uint256",
          "name": "_claimedBalance",
          "type": "uint256"
        },
        {
          "internalType": "bytes32[]",
          "name": "_merkleProof",
          "type": "bytes32[]"
        }
      ],
      "name": "verifyClaim",
      "outputs": [
        {
          "internalType": "bool",
          "name": "valid",
          "type": "bool"
        }
      ],
      "stateMutability": "view",
      "type": "function"
    },
    {
      "inputs": [
        {
          "internalType": "uint256",
          "name": "",
          "type": "uint256"
        }
      ],
      "name": "weekMerkleRoots",
      "outputs": [
        {
          "internalType": "bytes32",
          "name": "",
          "type": "bytes32"
        }
      ],
      "stateMutability": "view",
      "type": "function"
    }
  ],
  "transactionHash": "0x11638d6ca3a15522a414d1d3f7664b47abd6bd2127b389daf8cf779e7201ff84",
  "args": [],
  "solcInputHash": "f287b6118a5a4f7e03be9eefccf7f635",
  "bytecode": "0x608060405234801561001057600080fd5b5061160c806100206000396000f3fe608060405234801561001057600080fd5b506004361061010b5760003560e01c8063715018a6116100a2578063c804c39a11610071578063c804c39a14610239578063dd8c9c9d1461024c578063eb0d07f51461026c578063f373579f1461027f578063fc0c546a1461029257600080fd5b8063715018a6146102055780638da5cb5b1461020d578063bc5920ba1461021e578063c4d66de81461022657600080fd5b806347fb23c1116100de57806347fb23c11461019a5780634cd488ab146101ba57806358b4e4b4146101cd5780636c8381f8146101e057600080fd5b8063120aa8771461011057806313af40351461015357806339144f501461016857806339436b001461017a575b600080fd5b61013e61011e3660046110d1565b606860209081526000928352604080842090915290825290205460ff1681565b60405190151581526020015b60405180910390f35b6101666101613660046110fd565b6102a5565b005b609c545b60405190815260200161014a565b61018d61018836600461111f565b610436565b60405161014a9190611141565b6101ad6101a8366004611185565b6104f9565b60405161014a91906111b8565b6101666101c83660046111f2565b6105e2565b6101666101db36600461131d565b61064e565b6034546001600160a01b03165b6040516001600160a01b03909116815260200161014a565b6101666106ab565b6033546001600160a01b03166101ed565b61016661072b565b6101666102343660046110fd565b61086b565b61016661024736600461137e565b610927565b61016c61025a36600461148a565b60676020526000908152604090205481565b61013e61027a36600461131d565b6109ad565b61016c61028d36600461148a565b610a18565b6069546101ed906001600160a01b031681565b6033546001600160a01b031633146102d85760405162461bcd60e51b81526004016102cf906114a3565b60405180910390fd5b6001600160a01b0381166103395760405162461bcd60e51b815260206004820152602260248201527f5065727046694f776e61626c65557067726164653a207a65726f206164647265604482015261737360f01b60648201526084016102cf565b6033546001600160a01b03828116911614156103a65760405162461bcd60e51b815260206004820152602660248201527f5065727046694f776e61626c65557067726164653a2073616d65206173206f726044820152651a59da5b985b60d21b60648201526084016102cf565b6034546001600160a01b03828116911614156104145760405162461bcd60e51b815260206004820152602760248201527f5065727046694f776e61626c65557067726164653a2073616d652061732063616044820152666e64696461746560c81b60648201526084016102cf565b603480546001600160a01b0319166001600160a01b0392909216919091179055565b6060600083610446846001611506565b610450919061151e565b905060008167ffffffffffffffff81111561046d5761046d61121e565b604051908082528060200260200182016040528015610496578160200160208202803683370190505b50905060005b828110156104f057606760006104b28389611506565b8152602001908152602001600020548282815181106104d3576104d3611535565b6020908102919091010152806104e88161154b565b91505061049c565b50949350505050565b6060600083610509846001611506565b610513919061151e565b905060008167ffffffffffffffff8111156105305761053061121e565b604051908082528060200260200182016040528015610559578160200160208202803683370190505b50905060005b828110156105d857606860006105758389611506565b8152602080820192909252604090810160009081206001600160a01b038b168252909252902054825160ff909116908390839081106105b6576105b6611535565b91151560209283029190910190910152806105d08161154b565b91505061055f565b5095945050505050565b6033546001600160a01b0316331461060c5760405162461bcd60e51b81526004016102cf906114a3565b610617838383610a39565b5050609c80546001810182556000919091527faf85b9071dfafeac1409d3f1d19bafc9bc7c37974cde8df0ee6168f0086e539c0155565b6000838152606760205260409020546106995760405162461bcd60e51b815260206004820152600d60248201526c496e76616c696420636c61696d60981b60448201526064016102cf565b6106a584848484610b73565b50505050565b6033546001600160a01b031633146106d55760405162461bcd60e51b81526004016102cf906114a3565b6033546040516000916001600160a01b0316907f8be0079c531659141344cd1fd0a4f28419497f9722a3daafe3b4186f6b6457e0908390a3603380546001600160a01b0319908116909155603480549091169055565b6034546001600160a01b031661079b5760405162461bcd60e51b815260206004820152602f60248201527f5065727046694f776e61626c65557067726164653a2063616e6469646174652060448201526e6973207a65726f206164647265737360881b60648201526084016102cf565b6034546001600160a01b031633146108055760405162461bcd60e51b815260206004820152602760248201527f5065727046694f776e61626c65557067726164653a206e6f7420746865206e656044820152663b9037bbb732b960c91b60648201526084016102cf565b6034546033546040516001600160a01b0392831692909116907f8be0079c531659141344cd1fd0a4f28419497f9722a3daafe3b4186f6b6457e090600090a360348054603380546001600160a01b03199081166001600160a01b03841617909155169055565b600054610100900460ff1680610884575060005460ff16155b6108a05760405162461bcd60e51b81526004016102cf90611566565b600054610100900460ff161580156108c2576000805461ffff19166101011790555b6001600160a01b0382166109085760405162461bcd60e51b815260206004820152600d60248201526c125b9d985b1a59081a5b9c1d5d609a1b60448201526064016102cf565b61091182610c60565b8015610923576000805461ff00191690555b5050565b60005b81518110156109a8576109968383838151811061094957610949611535565b60200260200101516000015184848151811061096757610967611535565b60200260200101516020015185858151811061098557610985611535565b60200260200101516040015161064e565b806109a08161154b565b91505061092a565b505050565b6040516bffffffffffffffffffffffff19606086901b166020820152603481018390526000908190605401604051602081830303815290604052805190602001209050610a0e83606760008881526020019081526020016000205483610cc8565b9695505050505050565b609c8181548110610a2857600080fd5b600091825260209091200154905081565b60008381526067602052604090205415610a955760405162461bcd60e51b815260206004820152601a60248201527f63616e6e6f742072657772697465206d65726b6c6520726f6f7400000000000060448201526064016102cf565b6000838152606760205260409081902083905560695490516323b872dd60e01b8152336004820152306024820152604481018390526001600160a01b03909116906323b872dd90606401602060405180830381600087803b158015610af957600080fd5b505af1158015610b0d573d6000803e3d6000fd5b505050506040513d601f19601f82011682018060405250810190610b3191906115b4565b6109a85760405162461bcd60e51b815260206004820152601360248201527211549497d514905394d1915497d19052531151606a1b60448201526064016102cf565b60008381526068602090815260408083206001600160a01b038816845290915290205460ff1615610bd85760405162461bcd60e51b815260206004820152600f60248201526e436c61696d656420616c726561647960881b60448201526064016102cf565b610be4848484846109ad565b610c295760405162461bcd60e51b815260206004820152601660248201527524b731b7b93932b1ba1036b2b935b63290383937b7b360511b60448201526064016102cf565b60008381526068602090815260408083206001600160a01b03881684529091529020805460ff191660011790556106a58483610cde565b600054610100900460ff1680610c79575060005460ff16155b610c955760405162461bcd60e51b81526004016102cf90611566565b600054610100900460ff16158015610cb7576000805461ffff19166101011790555b610cbf610dee565b61091182610e6a565b600082610cd58584610ef1565b14949350505050565b801561092357604080516001600160a01b0384168152602081018390527fd8138f8a3f377c5259ca548e70e4c2de94f129f5a11036a15b69513cba2b426a910160405180910390a160695460405163a9059cbb60e01b81526001600160a01b038481166004830152602482018490529091169063a9059cbb90604401602060405180830381600087803b158015610d7457600080fd5b505af1158015610d88573d6000803e3d6000fd5b505050506040513d601f19601f82011682018060405250810190610dac91906115b4565b6109235760405162461bcd60e51b815260206004820152601360248201527211549497d514905394d1915497d19052531151606a1b60448201526064016102cf565b600054610100900460ff1680610e07575060005460ff16155b610e235760405162461bcd60e51b81526004016102cf90611566565b600054610100900460ff16158015610e45576000805461ffff19166101011790555b610e4d610f9d565b610e55611007565b8015610e67576000805461ff00191690555b50565b600054610100900460ff1680610e83575060005460ff16155b610e9f5760405162461bcd60e51b81526004016102cf90611566565b600054610100900460ff16158015610ec1576000805461ffff19166101011790555b606980546001600160a01b0319166001600160a01b0384161790558015610923576000805461ff00191690555050565b600081815b8451811015610f95576000858281518110610f1357610f13611535565b60200260200101519050808311610f55576040805160208101859052908101829052606001604051602081830303815290604052805190602001209250610f82565b60408051602081018390529081018490526060016040516020818303038152906040528051906020012092505b5080610f8d8161154b565b915050610ef6565b509392505050565b600054610100900460ff1680610fb6575060005460ff16155b610fd25760405162461bcd60e51b81526004016102cf90611566565b600054610100900460ff16158015610e55576000805461ffff19166101011790558015610e67576000805461ff001916905550565b600054610100900460ff1680611020575060005460ff16155b61103c5760405162461bcd60e51b81526004016102cf90611566565b600054610100900460ff1615801561105e576000805461ffff19166101011790555b603380546001600160a01b0319163390811790915560405181906000907f8be0079c531659141344cd1fd0a4f28419497f9722a3daafe3b4186f6b6457e0908290a3508015610e67576000805461ff001916905550565b80356001600160a01b03811681146110cc57600080fd5b919050565b600080604083850312156110e457600080fd5b823591506110f4602084016110b5565b90509250929050565b60006020828403121561110f57600080fd5b611118826110b5565b9392505050565b6000806040838503121561113257600080fd5b50508035926020909101359150565b6020808252825182820181905260009190848201906040850190845b818110156111795783518352928401929184019160010161115d565b50909695505050505050565b60008060006060848603121561119a57600080fd5b6111a3846110b5565b95602085013595506040909401359392505050565b6020808252825182820181905260009190848201906040850190845b818110156111795783511515835292840192918401916001016111d4565b60008060006060848603121561120757600080fd5b505081359360208301359350604090920135919050565b634e487b7160e01b600052604160045260246000fd5b6040516060810167ffffffffffffffff811182821017156112575761125761121e565b60405290565b604051601f8201601f1916810167ffffffffffffffff811182821017156112865761128661121e565b604052919050565b600067ffffffffffffffff8211156112a8576112a861121e565b5060051b60200190565b600082601f8301126112c357600080fd5b813560206112d86112d38361128e565b61125d565b82815260059290921b840181019181810190868411156112f757600080fd5b8286015b8481101561131257803583529183019183016112fb565b509695505050505050565b6000806000806080858703121561133357600080fd5b61133c856110b5565b93506020850135925060408501359150606085013567ffffffffffffffff81111561136657600080fd5b611372878288016112b2565b91505092959194509250565b6000806040838503121561139157600080fd5b61139a836110b5565b915060208084013567ffffffffffffffff808211156113b857600080fd5b818601915086601f8301126113cc57600080fd5b81356113da6112d38261128e565b81815260059190911b830184019084810190898311156113f957600080fd5b8585015b83811015611479578035858111156114155760008081fd5b86016060818d03601f190181131561142d5760008081fd5b611435611234565b828a013581526040830135818b01529082013590878211156114575760008081fd5b6114658e8b848601016112b2565b6040820152855250509186019186016113fd565b508096505050505050509250929050565b60006020828403121561149c57600080fd5b5035919050565b6020808252602d908201527f5065727046694f776e61626c65557067726164653a2063616c6c65722069732060408201526c3737ba103a34329037bbb732b960991b606082015260800190565b634e487b7160e01b600052601160045260246000fd5b60008219821115611519576115196114f0565b500190565b600082821015611530576115306114f0565b500390565b634e487b7160e01b600052603260045260246000fd5b600060001982141561155f5761155f6114f0565b5060010190565b6020808252602e908201527f496e697469616c697a61626c653a20636f6e747261637420697320616c72656160408201526d191e481a5b9a5d1a585b1a5e995960921b606082015260800190565b6000602082840312156115c657600080fd5b8151801515811461111857600080fdfea26469706673582212200e0f91fb755ff9acf0f78b6c980e211c15bafbf49445d5c2c4a298fb776d9a5564736f6c63430008090033",
  "devdoc": {
    "kind": "dev",
    "methods": {
      "owner()": {
        "details": "Returns the address of the current owner."
      },
      "renounceOwnership()": {
        "details": "Leaves the contract without owner. It will not be possible to call `onlyOwner` functions anymore. Can only be called by the current owner. NOTE: Renouncing ownership will leave the contract without an owner, thereby removing any functionality that is only available to the owner."
      },
      "setOwner(address)": {
        "details": "Set ownership of the contract to a new account (`newOwner`). Can only be called by the current owner."
      },
      "updateOwner()": {
        "details": "Transfers ownership of the contract to a new account (`_candidate`). Can only be called by the new owner."
      }
    },
    "version": 1
  },
  "userdoc": {
    "kind": "user",
    "methods": {},
    "version": 1
  },
  "storageLayout": {
    "storage": [
      {
        "astId": 768,
        "contract": "contracts/PerpLiquidityMining.sol:PerpLiquidityMining",
        "label": "_initialized",
        "offset": 0,
        "slot": "0",
        "type": "t_bool"
      },
      {
        "astId": 771,
        "contract": "contracts/PerpLiquidityMining.sol:PerpLiquidityMining",
        "label": "_initializing",
        "offset": 1,
        "slot": "0",
        "type": "t_bool"
      },
      {
        "astId": 1989,
        "contract": "contracts/PerpLiquidityMining.sol:PerpLiquidityMining",
        "label": "__gap",
        "offset": 0,
        "slot": "1",
        "type": "t_array(t_uint256)50_storage"
      },
      {
        "astId": 5963,
        "contract": "contracts/PerpLiquidityMining.sol:PerpLiquidityMining",
        "label": "_owner",
        "offset": 0,
        "slot": "51",
        "type": "t_address"
      },
      {
        "astId": 5965,
        "contract": "contracts/PerpLiquidityMining.sol:PerpLiquidityMining",
        "label": "_candidate",
        "offset": 0,
        "slot": "52",
        "type": "t_address"
      },
      {
        "astId": 6146,
        "contract": "contracts/PerpLiquidityMining.sol:PerpLiquidityMining",
        "label": "__gap",
        "offset": 0,
        "slot": "53",
        "type": "t_array(t_uint256)50_storage"
      },
      {
        "astId": 5327,
        "contract": "contracts/PerpLiquidityMining.sol:PerpLiquidityMining",
        "label": "weekMerkleRoots",
        "offset": 0,
        "slot": "103",
        "type": "t_mapping(t_uint256,t_bytes32)"
      },
      {
        "astId": 5333,
        "contract": "contracts/PerpLiquidityMining.sol:PerpLiquidityMining",
        "label": "claimed",
        "offset": 0,
        "slot": "104",
        "type": "t_mapping(t_uint256,t_mapping(t_address,t_bool))"
      },
      {
        "astId": 5336,
        "contract": "contracts/PerpLiquidityMining.sol:PerpLiquidityMining",
        "label": "token",
        "offset": 0,
        "slot": "105",
        "type": "t_contract(IERC20)4186"
      },
      {
        "astId": 5340,
        "contract": "contracts/PerpLiquidityMining.sol:PerpLiquidityMining",
        "label": "__gap",
        "offset": 0,
        "slot": "106",
        "type": "t_array(t_uint256)50_storage"
      },
      {
        "astId": 5750,
        "contract": "contracts/PerpLiquidityMining.sol:PerpLiquidityMining",
        "label": "merkleRootIndexes",
        "offset": 0,
        "slot": "156",
        "type": "t_array(t_uint256)dyn_storage"
      }
    ],
    "types": {
      "t_address": {
        "encoding": "inplace",
        "label": "address",
        "numberOfBytes": "20"
      },
      "t_array(t_uint256)50_storage": {
        "base": "t_uint256",
        "encoding": "inplace",
        "label": "uint256[50]",
        "numberOfBytes": "1600"
      },
      "t_array(t_uint256)dyn_storage": {
        "base": "t_uint256",
        "encoding": "dynamic_array",
        "label": "uint256[]",
        "numberOfBytes": "32"
      },
      "t_bool": {
        "encoding": "inplace",
        "label": "bool",
        "numberOfBytes": "1"
      },
      "t_bytes32": {
        "encoding": "inplace",
        "label": "bytes32",
        "numberOfBytes": "32"
      },
      "t_contract(IERC20)4186": {
        "encoding": "inplace",
        "label": "contract IERC20",
        "numberOfBytes": "20"
      },
      "t_mapping(t_address,t_bool)": {
        "encoding": "mapping",
        "key": "t_address",
        "label": "mapping(address => bool)",
        "numberOfBytes": "32",
        "value": "t_bool"
      },
      "t_mapping(t_uint256,t_bytes32)": {
        "encoding": "mapping",
        "key": "t_uint256",
        "label": "mapping(uint256 => bytes32)",
        "numberOfBytes": "32",
        "value": "t_bytes32"
      },
      "t_mapping(t_uint256,t_mapping(t_address,t_bool))": {
        "encoding": "mapping",
        "key": "t_uint256",
        "label": "mapping(uint256 => mapping(address => bool))",
        "numberOfBytes": "32",
        "value": "t_mapping(t_address,t_bool)"
      },
      "t_uint256": {
        "encoding": "inplace",
        "label": "uint256",
        "numberOfBytes": "32"
      }
    }
  }
}